:100000000C9469000C94EE090C94C7090C94E40359
:100010000C94E4030C94E4030C9491000C94910070
:100020000C9491000C9491000C9491000C9491000C
:100030000C9491000C9491000C9491000C949100FC
:100040000C947D090C9491000C94CA070C94A4079D
:100050000C9491000C9491000C9491000C949100DC
:100060000C9488020C9491000000000024002700EA
:100070002A0000000008000201000003040700003D
:100080000000000000001F1C1F1E1F1E1F1F1E1F40
:100090001E1F0000000023002600290000000000B1
:1000A000250028002B0004040404040404040202B4
:1000B00002020202030303030303010204081020E7
:1000C00040800102040810200102040810203C0EA8
:1000D000C10A11241FBECFEFD8E0DEBFCDBF12E0B2
:1000E000A0E0B1E0E8E4F5E202C005900D92A23490
:1000F000B107D9F724E0A2E4B2E001C01D92A53710
:10010000B207E1F710E0C8E6D0E004C02197FE0195
:100110000E94950FC736D107C9F70E94DD0A0C94DB
:1001200097120C940000FC01918D828D981761F05C
:10013000828DDF01A80FB11D5D968C91928D9F5F1E
:100140009F73928F90E008958FEF9FEF0895FC01C9
:10015000918D828D981731F0828DE80FF11D858D7C
:1001600090E008958FEF9FEF0895FC01918D228D0F
:10017000892F90E0805C9F4F821B91098F73992794
:10018000089580E090E0892B29F00E9431078111C9
:100190000C940000089585ED8093BC008091BC0014
:1001A00084FDFCCF1092790308954091E102262F3F
:1001B00030E0240F311D21323105DCF42091790328
:1001C0002430C9F4FC0180E090E0861758F43091A7
:1001D000E1022191DC01AF53BD4FA30FB11D2C9360
:1001E0000196F3CF8091E102680F6093E10280E015
:1001F000089581E0089582E008950895E091310323
:1002000080913003E81730F4F0E0ED5CFC4F808122
:1002100090E008958FEF9FEF0895909131038091C2
:100220003003981750F4E92FF0E0ED5CFC4F20818B
:1002300030E09F5F9093310302C02FEF3FEFC90181
:1002400008958091300390E020913103821B910941
:100250000895CF92DF92EF92FF920F931F93CF9367
:10026000DF937C01CB018A0120917A03222389F05C
:10027000EB016B01C40ED51ECC15DD0569F069914B
:10028000D701ED91FC910190F081E02DC701099516
:10029000F3CF642F0E94D500C801DF91CF911F9149
:1002A0000F91FF90EF90DF90CF900895CF93DF9361
:1002B0001F92CDB7DEB7698320917A032223D1F054
:1002C00020919D03203240F021E030E0FC01338397
:1002D000228380E090E015C080917B03E82FF0E05E
:1002E000E458FC4F998190838F5F80937B038093C8
:1002F0009D0305C061E0CE0101960E94D50081E01A
:1003000090E00F90DF91CF910895209106033091F6
:1003100007032817390771F49091040380910503AE
:10032000981741F0E0910403F0E0EF57FD4F808112
:1003300090E008958FEF9FEF08951F93CF93DF9381
:10034000DC015C968D919C915D97009739F421E0DA
:1003500030E013963C932E9312973BC05196ED914B
:10036000FC91529750962C915097322F30951FB791
:100370005E964C915E97742F727041FD6095F89473
:100380004081772311F0422B01C043234083EC01CD
:100390002197F1F748E0508160FF02C0522B01C065
:1003A00053235083EC012197F1F76695415099F75B
:1003B0008081772319F08323808302C0282B208338
:1003C0001FBF5C968D919C915D970197F1F781E03D
:1003D00090E0DF91CF911F91089520910603309115
:1003E00007032817390771F480910503209104034E
:1003F00090E0805C9F4F821B910960E470E00E9456
:100400005F0F089580E090E00895209106033091F9
:10041000070328173907B9F4909104038091050365
:10042000981789F0E0910403F0E0EF57FD4F8081C9
:100430002091040330E02F5F3F4F2F733327209329
:10044000040390E008958FEF9FEF0895089580E0F2
:1004500090E008950E949B0F81E0809332030E94F8
:10046000500861E0892B09F060E08DE00C941209DE
:10047000CF92DF92EF92FF9266E471E08EE993E013
:100480000E94AD0AC12CD12C76014AE0C701B60109
:100490000E942A0A87E591E00E94A80AF601EE0F61
:1004A000FF1FEE5BFD4F808191810E948E0A8FEFCE
:1004B000C81AD80AE80AF80A88E0C816D104E10484
:1004C000F10419F7FF90EF90DF90CF900895FC01B1
:1004D000848DDF01A80FB11DA35ABF4F2C91848DCD
:1004E00090E001968F739927848FA689B7892C9302
:1004F000A089B1898C9180648C93938D848D98139D
:1005000006C00288F389E02D80818F7D8083089565
:100510001F920F920FB60F9211242F933F934F9378
:100520005F936F937F938F939F93AF93BF93EF935B
:10053000FF938091B900887F803609F49CC068F5EC
:10054000883209F45BC090F4803109F454C038F467
:10055000882309F4F2C0883009F44DC0F2C0883114
:1005600009F44CC0803209F45DC0EBC0803409F45A
:1005700068C048F4803309F455C0883309F0E1C0FD
:1005800080937703D4C0803509F44FC0883509F4CF
:100590005DC0883409F0D5C0D2C0883909F4C3C021
:1005A000A8F4883709F467C038F4883609F463C0C2
:1005B000803709F460C0C5C0883809F4B4C08039F8
:1005C00009F45FC0803809F0BCC05BC0803B09F40F
:1005D00084C038F4803A09F466C0883A09F47DC0D2
:1005E000B0C0803C09F4A3C0883C09F4A0C0883B9B
:1005F00009F486C0A6C08091540310C09091760380
:1006000080917503981770F5E091760381E08E0F65
:1006100080937603F0E0EB5AFC4F80818093BB001F
:1006200085EC82C0809377038AC0E091760381E0F5
:100630008E0F809376038091BB00F0E0EB5AFC4F65
:10064000808390917603809175036AC0E091760370
:1006500081E08E0F809376038091BB00F0E0EB5A2F
:10066000FC4F808380917803811169C081E0809381
:10067000530384EA5DC083E08093790310920303FF
:10068000CFCF80910303803208F04DC0E091030387
:1006900081E08E0F809303038091BB00F0E0ED5169
:1006A000FD4F8083BDCF85EC8093BC001092790311
:1006B00080910303803230F4E0910303F0E0ED51C8
:1006C000FD4F10826091030370E083EE92E0E0E062
:1006D000F0E009951092030334C084E0809379031D
:1006E0001092E2021092E102E0E0F0E009958091C0
:1006F000E102811105C081E08093E1021092C10204
:10070000E091E20281E08E0F8093E202F0E0EF538D
:10071000FD4F80818093BB009091E2028091E102C5
:10072000981708F47DCF85E88093BC000AC085EC5B
:100730008093BC001092790304C0109277030E944A
:10074000CB00FF91EF91BF91AF919F918F917F91DE
:100750006F915F914F913F912F910F900FBE0F902E
:100760001F901895803D27E0920710F0805D97401C
:1007700050E0E6E8F0E021E0261730F43491430F32
:10078000511D2F5F3196F8CF633038F09C012370F4
:100790003327232B11F44F5F5F4FBC016D5F7F4FF9
:1007A0007695679576956795EDE6F1E08E9F9001D9
:1007B0008F9F300D9E9F300D1124C9010197860F28
:1007C000971F840F951F08951F920F920FB60F92D7
:1007D00011242F933F934F935F936F937F938F9346
:1007E0009F93AF93BF93EF93FF93E0910603F09134
:1007F0000703309709F451C0968DA685B785858586
:1008000091FF04C09C91892329F447C09C918923BE
:1008100009F043C0A389B4899C9185898095892377
:100820008C93868997890197F1F7608D718DA685E4
:10083000B785558538E020E0CB010197F1F7822F8D
:1008400090E095958795282F4C91452309F02068D5
:10085000315091F7868D81FD20958091050390E0C0
:1008600001968F73992730910403381749F0A091AE
:100870000503B0E0AF57BD4F2C938093050303C031
:10088000868D8160868F828D938D0197F1F7A38984
:10089000B4899C918589892B8C93FF91EF91BF91AD
:1008A000AF919F918F917F916F915F914F913F9108
:1008B0002F910F900FBE0F901F9018950C94350F2D
:1008C000CF93DF93C0E0D0E0FE01E85FFC4F808172
:1008D000882349F060818DE494E00E949D01219677
:1008E000C832D10589F7DF91CF910895CF93DF9377
:1008F000C0E0D0E0FE01E85FFC4F8081882349F032
:1009000060818EE993E00E943B072196C832D105B1
:1009100089F7DF91CF910895CF92DF92EF92FF9206
:100920001F93CF93DF93C82FE0917F02F091800255
:10093000E95AFD4F808380917F0290918002019659
:100940009093800280937F020E94500861E0892B7F
:1009500009F060E08DE00E941209CA3019F0CD3034
:1009600009F05EC280917F029091800204970CF49E
:1009700053C269E571E08EE993E00E94AD0A84E616
:1009800091E00E94A80A80917F02909180020E94CB
:100990008E0AC12CD12C760180917F029091800229
:1009A000C816D906ECF44AE0C701B6010E942A0A2B
:1009B00087E591E00E94A80AF601E95AFD4F60819F
:1009C0008EE993E00E943B0767E571E08EE993E0D2
:1009D0000E94AD0A1FEFC11AD10AE10AF10ADCCF69
:1009E00042E050E06CE071E087E592E00E94A00FE9
:1009F000892B49F481E08093560260E771E08EE92B
:100A000093E00E94AD0A42E050E068E071E087E5C3
:100A100092E00E94A00F892B49F481E08093550257
:100A20006DE771E08EE993E00E94AD0A42E050E08C
:100A300064E071E087E592E00E94A00F892B49F401
:100A400081E08093540269E871E08EE993E00E94AE
:100A5000AD0A80915602882309F4EFC065E971E080
:100A60008EE993E00E94AD0A80915A02082E000C94
:100A7000990BC097909343028093420280915B024E
:100A8000082E000C990BC097909345028093440266
:100A900020915C0240915D02022E000C330B20532A
:100AA0003109CAE0C29FC001C39F900D1124840F79
:100AB000911D47FD9A95C0979093470280934602F7
:100AC00020915E0240915F02022E000C330B2053F6
:100AD0003109C29FC001C39F900D1124840F911D45
:100AE00047FD9A95C09790934902809348022091C0
:100AF000600240916102022E000C330B2053310939
:100B0000C29FC001C39F900D1124840F911D47FD0A
:100B10009A95C09790934B0280934A02209162026B
:100B200040916302022E000C330B20533109C29F07
:100B3000C001C39F900D1124840F911D47FD9A950C
:100B4000C09790934D0280934C0220916402409193
:100B50006502022E000C330B20533109C29FC001E5
:100B6000C39F900D1124840F911D47FD9A95C09746
:100B700090934F0280934E0220916602409167024B
:100B8000022E000C330B20533109C29FC001C39FBA
:100B9000900D1124840F911D47FD9A95C097909355
:100BA0005102809350020E943802209168024091C5
:100BB0006902022E000C330B20533109C29FC00181
:100BC000C39F900D1124840F911D47FD9A95C097E6
:100BD00090935302809352028AEA91E00E94A80AFD
:100BE00080915202909153020E948E0AC09052024C
:100BF000D090530253E0CC0CDD1C5A95E1F783EB07
:100C000091E00E94A80AC6010E948E0AE12CF12CF4
:100C1000F701EE0FFF1FEE5BFD4F60817181C70191
:100C20008C0D9D1D0E943D0F8FEFE81AF80A98E089
:100C3000E916F10469F71092560280915502882353
:100C400009F4B5C06BEB71E08EE993E00E94AD0A48
:100C500020915A0240915B02022E000C330B20536C
:100C600031095AE0529FC001539F900D1124840F07
:100C7000911D47FD9A95C09790935302809352021D
:100C80008AEA91E00E94A80A809152029091530250
:100C90000E948E0AC0905202D090530233E0CC0CD6
:100CA000DD1C3A95E1F783EB91E00E94A80AC601AA
:100CB0000E948E0AE12CF12CC3E6D0E0C7018C0D16
:100CC0009D1D0E945E0490E0F701EE0FFF1FEE5B9A
:100CD000FD4F91838083808191818536910514F049
:100CE000D183C0831FEFE11AF10A88E0E816F1040E
:100CF00029F780914202909143020B9724F01092C1
:100D000043021092420280914402909145020B9757
:100D100024F010924502109244020E943802E090A2
:100D20005002F0905102C0914E02D0914F02A0911A
:100D30004C02B0914D02E0914A02F0914B02609159
:100D40004802709149024091460250914702209119
:100D50004402309145028091420290914302FF92F9
:100D6000EF92DF93CF93BF93AF93FF93EF937F9374
:100D70006F935F934F933F932F939F938F9381ED47
:100D800091E09F938F9388E093E09F938F930E94CD
:100D9000AD0F0E9476040E946004109255028DB738
:100DA0009EB744960FB6F8949EBF0FBE8DBF80913C
:100DB0005402882389F166EF71E08EE993E00E9486
:100DC000AD0AC12CD12C76014AE0C701B6010E94C0
:100DD0002A0A87E591E00E94A80AC6010E945E04E3
:100DE000682F70E080E090E04AE00E942A0A63EFFA
:100DF00071E08EE993E00E94150A9FEFC91AD90AA3
:100E0000E90AF90AC11414E0D106E104F104E1F69B
:100E10000E943802109254021092800210927F02B7
:100E200080917F0290918002889724F01092800236
:100E300010927F02DF91CF911F91FF90EF90DF9092
:100E4000CF900895FC01538D448D252F30E0842FE1
:100E500090E0821B930B541710F0CF9608950197E2
:100E600008958EE993E00E94B50021E0892B09F4F2
:100E700020E0822F0895EF92FF920F931F93CF935C
:100E8000DF93EC0181E0888F9B8D8C8D981305C0DA
:100E9000E889F989808185FD24C0F62E0B8D10E04C
:100EA0000F5F1F4F0F731127E02E8C8DE8120CC0BF
:100EB0000FB607FCFACFE889F989808185FFF5CF65
:100EC000CE010E946702F1CF8B8DFE01E80FF11D6C
:100ED000E35AFF4FF0820B8FEA89FB8980818062A1
:100EE00007C0EE89FF896083E889F9898081806481
:100EF000808381E090E0DF91CF911F910F91FF906F
:100F0000EF900895CF93DF93EC01888D8823C9F08B
:100F1000EA89FB89808185FD05C0A889B9898C9102
:100F200086FD0FC00FB607FCF5CF808185FFF2CF9D
:100F3000A889B9898C9185FFEDCFCE010E94670207
:100F4000E7CFDF91CF9108951F920F920FB60F92C6
:100F500011242F933F934F935F936F937F938F93BE
:100F60009F93AF93BF93EF93FF938EE993E00E941B
:100F70006702FF91EF91BF91AF919F918F917F9108
:100F80006F915F914F913F912F910F900FBE0F90F6
:100F90001F9018951F920F920FB60F9211242F9346
:100FA0008F939F93EF93FF93E091AE03F091AF0384
:100FB0008081E091B403F091B50382FD12C090816D
:100FC0008091B7038F5F8F732091B803821751F020
:100FD000E091B703F0E0E256FC4F958F8093B703A2
:100FE00001C08081FF91EF919F918F912F910F9080
:100FF0000FBE0F901F901895833081F028F4813038
:1010000099F08230A1F008958730A9F08830B9F0C6
:101010008430D1F4809180008F7D03C08091800066
:101020008F7780938000089584B58F7702C084B550
:101030008F7D84BD08958091B0008F7703C080912B
:10104000B0008F7D8093B00008950895CF92DF9215
:10105000EF92FF920F931F93CF93DF936C017A016E
:101060008B01C0E0D0E0CE15DF0581F0D8016D9195
:101070008D01D601ED91FC910190F081E02DC6012A
:101080000995892B11F02196EECF7E01C701DF91E2
:10109000CF911F910F91FF90EF90DF90CF90089527
:1010A000CF93DF93EFE7F0E08491E7ECF0E0D491A9
:1010B000E3EBF0E0C491CC2391F081110E94FC0796
:1010C000EC2FF0E0EE0FFF1FEE56FF4FA591B4910D
:1010D000EC91ED2381E090E021F480E002C080E01B
:1010E00090E0DF91CF910895282F30919D03313208
:1010F00008F04AC0809179038111FCCF90919C0344
:1011000042E040937903209378032FEF20937703F5
:101110001092760330937503ECE7F3E0A5E5B3E0B6
:1011200020E0321721F041914D932F5FFACF1092BA
:10113000540320915403990F922B90935403909150
:101140005303913061F410925303909154039093A0
:10115000BB009091BC0093FDF8CF95EC01C095EEDB
:101160009093BC00909179039230E1F390917703D2
:101170009F3F79F080917703803241F0809177032F
:10118000803331F084E005C081E003C082E001C01B
:1011900083E010927B0310929D0310927A030895CE
:1011A000909179039111FCCF91E090937903909302
:1011B00078032FEF2093770310927603260F209366
:1011C00075039093540390915403880F892B809357
:1011D000540380915303813061F410925303809142
:1011E00054038093BB008091BC0083FDF8CF85EC55
:1011F00001C085EE8093BC00809179038130E1F3DA
:1012000080917603861710F460917603A5E5B3E02C
:10121000E3E3F3E080E0861721F09D9191938F5FE7
:10122000FACF08951F93CF93DF93282F30E0F90171
:10123000EE58FF4F8491F901E654FF4FD491F90124
:10124000EA55FF4FC491CC23C1F0162F81110E94A3
:10125000FC07EC2FF0E0EE0FFF1FE456FF4FA591C7
:10126000B4919FB7F894111104C08C91D095D823F4
:1012700002C0EC91DE2BDC939FBFDF91CF911F91D9
:101280000895CF93DF9390E0FC01E654FF4F249143
:10129000FC01EA55FF4F8491882361F190E0880FAB
:1012A000991FFC01E859FF4FC591D491FC01E45608
:1012B000FF4FA591B491611109C09FB7F89488813F
:1012C000209582238883EC912E230BC0623061F439
:1012D0009FB7F8948881322F309583238883EC91CF
:1012E0002E2B2C939FBF06C08FB7F894E8812E2B2E
:1012F00028838FBFDF91CF9108951F920F920FB671
:101300000F9211242F933F938F939F93AF93BF938B
:101310008091710490917204A0917304B09174044F
:101320003091700423E0230F2D3720F40196A11D86
:10133000B11D05C026E8230F0296A11DB11D209303
:1013400070048093710490937204A0937304B0931B
:10135000740480916C0490916D04A0916E04B0911E
:101360006F040196A11DB11D80936C0490936D04D0
:10137000A0936E04B0936F04BF91AF919F918F9132
:101380003F912F910F900FBE0F901F9018951F92B5
:101390000F920FB60F9211242F933F934F935F93A9
:1013A0006F937F938F939F93AF93BF93EF93FF932D
:1013B000E0910201F09103010995FF91EF91BF9136
:1013C000AF919F918F917F916F915F914F913F91DD
:1013D0002F910F900FBE0F901F9018951F920F9294
:1013E0000FB60F9211242F933F934F935F936F93F8
:1013F0007F938F939F93AF93BF93EF93FF93E0916E
:101400000001F09101010995FF91EF91BF91AF911A
:101410009F918F917F916F915F914F913F912F910C
:101420000F900FBE0F901F9018956115710579F000
:10143000FB0101900020E9F73197AF01461B570BE4
:10144000DC01ED91FC910280F381E02D099480E0B4
:1014500090E008958F929F92AF92BF920F931F9347
:10146000CF93DF93CDB7DEB7A1970FB6F894DEBF69
:101470000FBECDBF19A2423008F44AE08E010F5DC5
:101480001F4F842E912CA12CB12CA50194010E94F8
:10149000730FE62FB901CA0101501109EA3014F4A3
:1014A000E05D01C0E95CD801EC93232B242B252BB4
:1014B00061F7B8018EE993E00E94150AA1960FB674
:1014C000F894DEBF0FBECDBFDF91CF911F910F917A
:1014D000BF90AF909F908F900895CF92DF92EF9240
:1014E000FF92CF93DF936B017C016DE28EE993E075
:1014F0000E943B07EC0166277727CB016C197D0919
:101500008E099F094AE00E942A0A8C0F9D1FDF91D5
:10151000CF91FF90EF90DF90CF900895CF93DF931E
:10152000BC01990F880B990B97FF03C00E946D0AAD
:1015300003C04AE00E942A0AEC0163EF71E08EE9E1
:1015400093E00E94150A8C0F9D1FDF91CF910895A3
:10155000BC018EE993E00C94150A0F931F93CF936F
:10156000DF93EC010E94150A8C0163EF71E0CE015C
:101570000E94150A800F911FDF91CF911F910F914B
:10158000089588E391E090934E0480934D048091F8
:101590000603909107038D54944071F4E091600428
:1015A000F091610490818091620480958923808309
:1015B00010920703109206030895789484B5826010
:1015C00084BD84B5816084BD85B5826085BD85B5E7
:1015D000816085BD80916E00816080936E00109265
:1015E00081008091810082608093810080918100E0
:1015F0008160809381008091800081608093800071
:101600008091B10084608093B1008091B0008160CE
:101610008093B00080917A00846080937A008091FA
:101620007A00826080937A0080917A008160809352
:101630007A0080917A00806880937A001092C100CD
:10164000E091AE03F091AF0382E08083E091AA03C2
:10165000F091AB031082E091AC03F091AD0380E117
:1016600080831092B603E091B203F091B30386E059
:101670008083E091B003F091B10380818061808329
:10168000E091B003F091B103808188608083E091A4
:10169000B003F091B103808180688083E091B00352
:1016A000F091B10380818F7D80831092310310927D
:1016B000300310927B0310929D0310927903D1E0C6
:1016C000D09378031092530361E082E10E941209E3
:1016D00061E083E10E9412098091B9008E7F8093BE
:1016E000B9008091B9008D7F8093B90088E4809320
:1016F000B80085E48093BC00D0937A0318E6109379
:101700009C0310927B0310929D036EE08BE394E0A8
:101710000E94560181E00E94740861E088E60E9400
:10172000D00810923103809330038BE394E00E9441
:101730000D01C82FD0937A0310939C0310927B0362
:1017400010929D036EE08BE394E00E9456016C2F93
:10175000637E8BE394E00E94560181E00E9474084E
:1017600061E08DE00E94410962E082E00E9441094F
:101770008CE292E0909301018093000180916900D6
:101780008C7F826080936900E89A6BE072E08EE95A
:1017900093E00E94AD0A10926804109267041092C0
:1017A00066041092650410926404109263048DE93B
:1017B00091E090936A048093690490915904963162
:1017C00008F058C02DEB30E030936404209363049C
:1017D0002BE931E030936604209365042CE231E07C
:1017E000309368042093670440916800983058F063
:1017F00031E09E3008F430E021E0822F01C0880FF4
:101800003A95EAF701C084E0842B80936800983011
:1018100038F09E3040F0963148F020E030E008C0CB
:101820002DE630E005C02BE630E002C02CE630E0CB
:101830003093610420936004983030F481E001C05B
:10184000880F9A95EAF70EC0292F30E09E3018F4E1
:101850002850310902C02E50310981E001C0880FA3
:101860002A95EAF7809362048091690490916A0452
:101870000197F1F78091670490916804892B49F1F1
:10188000E0910603F091070384E0ED34F80709F1D5
:10189000309739F0A389B4899C91858980958923F3
:1018A0008C9380916B048E7F80936B041092050360
:1018B000109204038DE494E0909307038093060351
:1018C000E0916004F0916104908180916204892B21
:1018D000808368E172E08DE494E00E94AD0A61E0EB
:1018E00085E00E94410961E086E00E94410961E0D3
:1018F00087E00E94410961E088E00E94410961E0BF
:1019000089E00E94410961E08AE00E94410961E0AA
:1019100085E00E94120961E086E00E94120961E000
:1019200087E00E94120961E088E00E94120961E0EC
:1019300089E00E94120961E08AE00E941209DAEF50
:10194000E0E44E2EF7E0CF2ED12CA6E2AA2EA2E0A4
:10195000BA2EB8E08B2EB3E09B2E8EE993E00E9466
:10196000B500892B31F08EE993E00E9493000E942C
:101970008C048DE494E00E94ED01892B31F08DE41C
:1019800094E00E9405020E948C0480913203882317
:1019900009F447C191E090937A0388E680939C0311
:1019A00010927B0310929D0360E08BE394E00E9411
:1019B000560181E00E94740867E088E60E94D00822
:1019C00010923103809330038BE394E00E940D0169
:1019D0008F77982F92959F70E82E9D9FE00C112491
:1019E0008BE394E00E940D019C01332794E0359530
:1019F00027959A95E1F7F82ED29FF00C11248BE3EE
:101A000094E00E940D019C01332744E03595279511
:101A10004A95E1F7C82FD29FC00D11248BE394E0C3
:101A20000E940D018BE394E00E940D019C0133277D
:101A300054E0359527955A95E1F7682ED29F600CB2
:101A400011248BE394E00E940D019C01332764E094
:101A5000359527956A95E1F7782ED29F700C112461
:101A60008BE394E00E940D019C01332774E03595CF
:101A700027957A95E1F7982FD29F900D1124292F61
:101A800030E0909347047092480460924904C093F8
:101A90004A04F0924B04E0924C0440927C00809106
:101AA0007A00806480937A0080917A0086FDFCCF72
:101AB000009178008091790010E0182B462D672D59
:101AC000C9010E94B2031F930F931F92EF921F92BE
:101AD000FF921F92CF930696B6010E944B0F9F93E1
:101AE0008F93BF92AF929F928F920E94AD0F0E94F0
:101AF00076040E9460048DB79EB70E960FB6F894D8
:101B00009EBF0FBE8DBF00E010E0C80101960E948D
:101B10005E04C82F809147044091490460914804B5
:101B200090E00E94B2032C2F30E00696B6010E948E
:101B30004B0F2817390709F06BC0C8010E945E04DB
:101B4000C82FC80102960E945E04282EC801039681
:101B50000E945E04382EC80104960E945E04582E2E
:101B6000C80105960E945E04E82EF12CC801069675
:101B70000E945E04782EC80107960E945E04682EBB
:101B8000222D30E080914A0490E028173907F1F4C3
:101B9000232D30E080914B0490E028173907B1F4F1
:101BA000252D30E080914C0490E02817390771F41E
:101BB0003BC0C43008F042C0C130D9F560E085E0D8
:101BC0000E94120960E08AE00E94120980914A0492
:101BD00090E0E816F906E1F4272D30E080914B04FF
:101BE00090E028173907A1F4712C80914C0490E003
:101BF0006816790669F42CC0C430A0F5C13069F5C7
:101C000061E085E00E94120961E08AE00E94120909
:101C1000085F1F4F003293E0190709F076CF10924A
:101C200032030E94C10099CEC33019F660E087E00C
:101C3000C7CFC23059F660E086E0C2CFC43019F495
:101C400060E088E0BDCFC53009F660E089E0B8CF3C
:101C5000C33091F661E087E0D5CFC230C9F661E0CC
:101C600086E0D0CFC43019F461E088E0CBCFC53036
:101C700079F661E089E0C6CF1092A1031092A0032B
:101C800088EE93E0A0E0B0E08093A2039093A303DA
:101C9000A093A403B093A50324E131E030939F0304
:101CA00020939E0325EC30E03093AB032093AA03EE
:101CB00024EC30E03093AD032093AC0320EC30E013
:101CC0003093AF032093AE0321EC30E03093B103A7
:101CD0002093B00322EC30E03093B3032093B2039F
:101CE00026EC30E03093B5032093B4031092B70391
:101CF0001092B8031092B9031092BA0310923E04E6
:101D000010923D0480933F0490934004A0934104BB
:101D1000B093420426E231E030933C0420933B042C
:101D20001092500410924F048093510490935204E7
:101D3000A0935304B093540488E391E090934E042D
:101D400080934D0410926404109263041092660410
:101D500010926504109268041092670410926A044D
:101D60001092690460916B046E7F6D7F60936B04C9
:101D70006695617081E0682784E00E94120961E045
:101D800084E00E944109EEEBF0E0E491E0935D0411
:101D9000EAEAF0E0E491F0E0EE0FFF1FE456FF4FB7
:101DA0008591949190935F0480935E0460E083E05A
:101DB0000E94410980916B0481FD04C061E083E0D1
:101DC0000E94120983E080935904EDEBF0E0E49166
:101DD000E0935A04E9EAF0E0E491F0E0EE0FFF1F2F
:101DE000EE56FF4F8591949190935C0480935B0431
:101DF00080E180934C048CE180934B0486E08093D7
:101E00004A0440E081E697E9542F537021E009F03D
:101E100020E061E0640F30E0F901E359FE4F8E17D6
:101E20009F0730F0821B930B8D569140462FECCFCD
:101E30004093470421E0E22FF0E0EB57FF4FE4919D
:101E4000511103C0223009F4EF5FF0E031E0320FAE
:101E50008E179F0720F08E1B9F0B232FECCF209314
:101E600048048F5F809349040895F999FECF92BD8D
:101E700081BDF89A992780B50895262FF999FECF4C
:101E80001FBA92BD81BD20BD0FB6F894FA9AF99A97
:101E90000FBE01960895AA1BBB1B51E107C0AA1FE4
:101EA000BB1FA617B70710F0A61BB70B881F991FFB
:101EB0005A95A9F780959095BC01CD01089597FB9F
:101EC000072E16F4009407D077FD09D00E944B0F1F
:101ED00007FC05D03EF4909581959F4F089570952D
:101EE00061957F4F0895A1E21A2EAA1BBB1BFD012D
:101EF0000DC0AA1FBB1FEE1FFF1FA217B307E407E9
:101F0000F50720F0A21BB30BE40BF50B661F771F40
:101F1000881F991F1A9469F7609570958095909520
:101F20009B01AC01BD01CF010895EE0FFF1F05908D
:101F3000F491E02D099481E090E0F8940C949712CC
:101F4000FB01DC0104C08D910190801921F4415006
:101F50005040C8F7881B990B0895AEE0B0E0E3EB62
:101F6000FFE00C946E120D891E8986E08C831A8323
:101F700009838FEF9FE79E838D83AE01475E5F4F9E
:101F80006F89788DCE0101960E94CF0FEF81F88581
:101F9000E00FF11F10822E96E4E00C948A12ABE061
:101FA000B0E0E5EDFFE00C9460126C017B018A016A
:101FB000FC0117821682838181FFCCC1CE0101967C
:101FC0003C01F6019381F70193FD859193FF819187
:101FD0007F01882309F4BAC1853239F493FD8591D4
:101FE00093FF81917F01853229F4B60190E00E9430
:101FF000C611E7CF912C212C312CFFE1F315D8F03D
:102000008B3279F038F4803279F08332A1F4232DC9
:1020100020611DC08D3261F0803369F4232D216071
:1020200016C0832D8260382EE32DE4603E2E2AC038
:10203000F32DF8601DC037FC2DC020ED280F2A308D
:1020400040F08E32B9F436FC81C1232D2064322E4B
:1020500019C036FE06C08AE0989E200D1124922EEB
:1020600011C0EAE02E9E200D1124222EF32DF062E5
:102070003F2E08C08C3621F4832D8068382E02C094
:10208000883641F4F70193FD859193FF81917F019B
:102090008111B3CF982F9F7D9554933028F40C5F16
:1020A0001F4F9FE399830DC0833631F0833771F062
:1020B000833509F059C021C0F801808189830E5F02
:1020C0001F4F88248394912C530113C02801F2E000
:1020D0004F0E511CF801A080B18036FE03C0692D5F
:1020E00070E002C06FEF7FEFC5010E94BB114C0191
:1020F0008201F32DFF773F2E16C0280122E0420E09
:10210000511CF801A080B18036FE03C0692D70E03B
:1021100002C06FEF7FEFC5010E94B0114C01F32D9B
:10212000F0683F2E820133FC1BC0822D90E08816A0
:102130009906B0F4B60180E290E00E94C6112A949C
:10214000F4CFF50137FC859137FE81915F01B6012F
:1021500090E00E94C61121102A9421E0821A910871
:102160008114910471F7E8C0843611F0893641F585
:10217000F80137FE07C060817181828193810C5F15
:102180001F4F08C060817181072E000C880B990BCE
:102190000E5F1F4FF32DFF763F2E97FF09C09095DE
:1021A0008095709561957F4F8F4F9F4FF0683F2EC0
:1021B0002AE030E0A3010E940212882E861845C052
:1021C000853731F4232D2F7EB22E2AE030E025C052
:1021D000932D997FB92E8F36C1F018F4883579F098
:1021E000B5C0803719F0883721F0B0C0E92FE06121
:1021F000BE2EB4FE0DC0FB2DF460BF2E09C034FE10
:102200000AC0292F2660B22E06C028E030E005C0A3
:1022100020E130E002C020E132E0F801B7FE07C063
:1022200060817181828193810C5F1F4F06C0608144
:10223000718180E090E00E5F1F4FA3010E940212A7
:10224000882E8618FB2DFF773F2E36FE0DC0232DDE
:102250002E7FA22E891458F434FE0BC032FC09C024
:10226000832D8E7EA82E05C0B82CA32C03C0B82CBD
:1022700001C0B92CA4FE0FC0FE01E80DF11D808144
:10228000803321F49A2D997EA92E09C0A2FE06C0A2
:10229000B394B39404C08A2D867809F0B394A3FC58
:1022A00011C0A0FE06C0B21488F4280C922C9B1812
:1022B0000EC0B21460F4B60180E290E00E94C61134
:1022C000B394F7CFB21418F42B1802C0982C212C19
:1022D000A4FE10C0B60180E390E00E94C611A2FEE9
:1022E00017C0A1FC03C088E790E002C088E590E039
:1022F000B6010CC08A2D867859F0A1FE02C08BE28F
:1023000001C080E2A7FC8DE2B60190E00E94C611F8
:10231000891438F4B60180E390E00E94C6119A94C3
:10232000F7CF8A94F301E80DF11D8081B60190E0AA
:102330000E94C6118110F5CF222009F442CEB601C9
:1023400080E290E00E94C6112A94F6CFF6018681C1
:10235000978102C08FEF9FEF2B96E2E10C947C12E5
:10236000FC010590615070400110D8F78095909560
:102370008E0F9F1F0895FC01615070400190011065
:10238000D8F7809590958E0F9F1F08950F931F93F8
:10239000CF93DF93FB01238121FD03C08FEF9FEFDC
:1023A0002CC022FF16C046815781248135814217F7
:1023B000530744F4A081B1819D012F5F3F4F3183CA
:1023C00020838C93268137812F5F3F4F378326836D
:1023D00014C08B01EC01FB010084F185E02D09950F
:1023E000892BE1F6D80116968D919C91179701964D
:1023F00017969C938E931697CE01DF91CF911F91E4
:102400000F910895FA01AA27283051F1203181F166
:10241000E8946F936E7F6E5F7F4F8F4F9F4FAF4FEC
:10242000B1E03ED0B4E03CD0670F781F891F9A1FFF
:10243000A11D680F791F8A1F911DA11D6A0F711DB3
:10244000811D911DA11D20D009F468943F912AE0BF
:10245000269F11243019305D3193DEF6CF010895A7
:10246000462F4770405D4193B3E00FD0C9F7F6CFD8
:10247000462F4F70405D4A3318F0495D31FD4052A0
:10248000419302D0A9F7EACFB4E0A6959795879536
:1024900077956795BA95C9F7009761057105089515
:1024A0009B01AC010A2E06945795479537952795C1
:1024B000BA95C9F7620F731F841F951FA01D089559
:1024C0002F923F924F925F926F927F928F929F9244
:1024D000AF92BF92CF92DF92EF92FF920F931F9332
:1024E000CF93DF93CDB7DEB7CA1BDB0B0FB6F894E3
:1024F000DEBF0FBECDBF09942A88398848885F8423
:102500006E847D848C849B84AA84B984C884DF8093
:10251000EE80FD800C811B81AA81B981CE0FD11D77
:102520000FB6F894DEBF0FBECDBFED01089510E0E9
:10253000C8E6D0E004C0FE010E94950F2196C9367E
:08254000D107C9F7F894FFCFA1
:102548002508250873686F00676574007365740053
:10255800000000003B07260822078207B500930009
:10256800A70000000000560129012702FD002101F3
:102578000D01FE00000000009D0126082702FD0055
:10258800ED01050285017363686564756C652076E5
:10259800616C7565733A002000436F6D70617261FC
:1025A800746F72006275666665725A6973653A007F
:1025B8003E3E207772697465466C6167003E3E2036
:1025C80072656164466C6167003E3E2073686F7790
:1025D800466C6167003E696E73696465207772694D
:1025E800746520746F20726F6D0061646472657326
:1025F800733A006F66667365743A003E696E736974
:10260800646520726561642066726F6D20726F6DFB
:10261800005072253031642530316425303264250C
:1026280030326425303264253032642530326425F6
:102638003032640D0A003E696E7369646520726504
:10264800616420616C6C20726F6D0048656C6C6F02
:10265800204D64666B72210048656C6C6F2C207786
:102668006F726C643F00546D282564292025303230
:10267800643A253032643A25303264202533640DBB
:022688000A0046
:00000001FF
